{
  "contractName": "TestHelpers_InternalReturnContract",
  "abi": [
    {
      "inputs": [],
      "name": "getBoolean",
      "outputs": [
        {
          "internalType": "bool",
          "name": "_out1",
          "type": "bool"
        }
      ],
      "stateMutability": "nonpayable",
      "type": "function"
    },
    {
      "inputs": [],
      "name": "getUint256",
      "outputs": [
        {
          "internalType": "uint256",
          "name": "_out1",
          "type": "uint256"
        }
      ],
      "stateMutability": "nonpayable",
      "type": "function"
    },
    {
      "inputs": [],
      "name": "getBytes32",
      "outputs": [
        {
          "internalType": "bytes32",
          "name": "_out1",
          "type": "bytes32"
        }
      ],
      "stateMutability": "nonpayable",
      "type": "function"
    },
    {
      "inputs": [],
      "name": "getBytes",
      "outputs": [
        {
          "internalType": "bytes",
          "name": "_out1",
          "type": "bytes"
        }
      ],
      "stateMutability": "nonpayable",
      "type": "function"
    },
    {
      "inputs": [],
      "name": "getString",
      "outputs": [
        {
          "internalType": "string",
          "name": "_out1",
          "type": "string"
        }
      ],
      "stateMutability": "nonpayable",
      "type": "function"
    },
    {
      "inputs": [
        {
          "internalType": "bool",
          "name": "_in1",
          "type": "bool"
        }
      ],
      "name": "getInputtedBoolean",
      "outputs": [
        {
          "internalType": "bool",
          "name": "_out1",
          "type": "bool"
        }
      ],
      "stateMutability": "nonpayable",
      "type": "function"
    },
    {
      "inputs": [
        {
          "internalType": "uint256",
          "name": "_in1",
          "type": "uint256"
        }
      ],
      "name": "getInputtedUint256",
      "outputs": [
        {
          "internalType": "uint256",
          "name": "_out1",
          "type": "uint256"
        }
      ],
      "stateMutability": "nonpayable",
      "type": "function"
    },
    {
      "inputs": [
        {
          "internalType": "bytes32",
          "name": "_in1",
          "type": "bytes32"
        }
      ],
      "name": "getInputtedBytes32",
      "outputs": [
        {
          "internalType": "bytes32",
          "name": "_out1",
          "type": "bytes32"
        }
      ],
      "stateMutability": "nonpayable",
      "type": "function"
    },
    {
      "inputs": [],
      "name": "getStructFixedSize",
      "outputs": [
        {
          "components": [
            {
              "internalType": "bool",
              "name": "valBoolean",
              "type": "bool"
            },
            {
              "internalType": "uint256",
              "name": "valUint256",
              "type": "uint256"
            },
            {
              "internalType": "bytes32",
              "name": "valBytes32",
              "type": "bytes32"
            }
          ],
          "internalType": "struct TestHelpers_InternalReturnContract.StructFixedSize",
          "name": "_out1",
          "type": "tuple"
        }
      ],
      "stateMutability": "nonpayable",
      "type": "function"
    },
    {
      "inputs": [],
      "name": "getStructDynamicSize",
      "outputs": [
        {
          "components": [
            {
              "internalType": "bytes",
              "name": "valBytes",
              "type": "bytes"
            },
            {
              "internalType": "string",
              "name": "valString",
              "type": "string"
            }
          ],
          "internalType": "struct TestHelpers_InternalReturnContract.StructDynamicSize",
          "name": "_out1",
          "type": "tuple"
        }
      ],
      "stateMutability": "nonpayable",
      "type": "function"
    },
    {
      "inputs": [],
      "name": "getStructMixedSize",
      "outputs": [
        {
          "components": [
            {
              "internalType": "bool",
              "name": "valBoolean",
              "type": "bool"
            },
            {
              "internalType": "uint256",
              "name": "valUint256",
              "type": "uint256"
            },
            {
              "internalType": "bytes32",
              "name": "valBytes32",
              "type": "bytes32"
            },
            {
              "internalType": "bytes",
              "name": "valBytes",
              "type": "bytes"
            },
            {
              "internalType": "string",
              "name": "valString",
              "type": "string"
            }
          ],
          "internalType": "struct TestHelpers_InternalReturnContract.StructMixedSize",
          "name": "_out1",
          "type": "tuple"
        }
      ],
      "stateMutability": "nonpayable",
      "type": "function"
    },
    {
      "inputs": [],
      "name": "getStructNested",
      "outputs": [
        {
          "components": [
            {
              "components": [
                {
                  "internalType": "bool",
                  "name": "valBoolean",
                  "type": "bool"
                },
                {
                  "internalType": "uint256",
                  "name": "valUint256",
                  "type": "uint256"
                },
                {
                  "internalType": "bytes32",
                  "name": "valBytes32",
                  "type": "bytes32"
                }
              ],
              "internalType": "struct TestHelpers_InternalReturnContract.StructFixedSize",
              "name": "valStructFixedSize",
              "type": "tuple"
            },
            {
              "components": [
                {
                  "internalType": "bytes",
                  "name": "valBytes",
                  "type": "bytes"
                },
                {
                  "internalType": "string",
                  "name": "valString",
                  "type": "string"
                }
              ],
              "internalType": "struct TestHelpers_InternalReturnContract.StructDynamicSize",
              "name": "valStructDynamicSize",
              "type": "tuple"
            }
          ],
          "internalType": "struct TestHelpers_InternalReturnContract.StructNested",
          "name": "_out1",
          "type": "tuple"
        }
      ],
      "stateMutability": "nonpayable",
      "type": "function"
    },
    {
      "inputs": [],
      "name": "getArrayUint256",
      "outputs": [
        {
          "internalType": "uint256[]",
          "name": "_out",
          "type": "uint256[]"
        }
      ],
      "stateMutability": "nonpayable",
      "type": "function"
    }
  ],
  "bytecode": "0x608060405234801561001057600080fd5b50610b4b806100206000396000f3fe608060405234801561001057600080fd5b50600436106100cf5760003560e01c80632d1be94d1161008c5780636889597911610066578063688959791461020657806376133e321461022457806389ea642f14610242578063923e9c7c14610260576100cf565b80632d1be94d1461019a578063394eea00146101b857806345365051146101d6576100cf565b806307557357146100d45780630b1cfc8d146101045780630bcd3b3314610122578063143fd4301461014057806314d207161461015e5780631f9030371461017c575b600080fd5b6100ee60048036038101906100e991906104d5565b610290565b6040516100fb91906108de565b60405180910390f35b61010c6102a2565b604051610119919061097a565b60405180910390f35b61012a6102b7565b60405161013791906108f9565b60405180910390f35b6101486102c6565b60405161015591906108a1565b60405180910390f35b6101666102d5565b604051610173919061095f565b60405180910390f35b6101846102ea565b60405161019191906108de565b60405180910390f35b6101a26102f9565b6040516101af91906108c3565b60405180910390f35b6101c0610308565b6040516101cd919061093d565b60405180910390f35b6101f060048036038101906101eb91906104fe565b61031d565b6040516101fd91906109be565b60405180910390f35b61020e61032f565b60405161021b91906109be565b60405180910390f35b61022c61033e565b604051610239919061099c565b60405180910390f35b61024a610353565b604051610257919061091b565b60405180910390f35b61027a600480360381019061027591906104ac565b610362565b60405161028791906108c3565b60405180910390f35b600061029b82610374565b9050919050565b6102aa6103d3565b6102b261037b565b905090565b60606102c1610386565b905090565b60606102d061038b565b905090565b6102dd610407565b6102e5610390565b905090565b60006102f461039b565b905090565b60006103036103a0565b905090565b61031061042d565b6103186103a5565b905090565b6000610328826103b0565b9050919050565b60006103396103b7565b905090565b610346610447565b61034e6103bc565b905090565b606061035d6103c7565b905090565b600061036d826103cc565b9050919050565b6000919050565b6103836103d3565b90565b606090565b606090565b610398610407565b90565b600090565b600090565b6103ad61042d565b90565b6000919050565b600090565b6103c4610447565b90565b606090565b6000919050565b6040518060a00160405280600015158152602001600081526020016000801916815260200160608152602001606081525090565b604051806060016040528060001515815260200160008152602001600080191681525090565b604051806040016040528060608152602001606081525090565b604051806040016040528061045a610407565b815260200161046761042d565b81525090565b60008135905061047c81610ad0565b92915050565b60008135905061049181610ae7565b92915050565b6000813590506104a681610afe565b92915050565b6000602082840312156104be57600080fd5b60006104cc8482850161046d565b91505092915050565b6000602082840312156104e757600080fd5b60006104f584828501610482565b91505092915050565b60006020828403121561051057600080fd5b600061051e84828501610497565b91505092915050565b60006105338383610883565b60208301905092915050565b600061054a826109e9565b6105548185610a17565b935061055f836109d9565b8060005b838110156105905781516105778882610527565b975061058283610a0a565b925050600181019050610563565b5085935050505092915050565b6105a681610a6c565b82525050565b6105b581610a6c565b82525050565b6105c481610a78565b82525050565b6105d381610a78565b82525050565b60006105e4826109f4565b6105ee8185610a28565b93506105fe818560208601610a8c565b61060781610abf565b840191505092915050565b600061061d826109f4565b6106278185610a39565b9350610637818560208601610a8c565b61064081610abf565b840191505092915050565b6000610656826109ff565b6106608185610a4a565b9350610670818560208601610a8c565b61067981610abf565b840191505092915050565b600061068f826109ff565b6106998185610a5b565b93506106a9818560208601610a8c565b6106b281610abf565b840191505092915050565b600060408301600083015184820360008601526106da82826105d9565b915050602083015184820360208601526106f4828261064b565b9150508091505092915050565b6000604083016000830151848203600086015261071e82826105d9565b91505060208301518482036020860152610738828261064b565b9150508091505092915050565b60608201600082015161075b600085018261059d565b50602082015161076e6020850182610883565b50604082015161078160408501826105bb565b50505050565b60608201600082015161079d600085018261059d565b5060208201516107b06020850182610883565b5060408201516107c360408501826105bb565b50505050565b600060a0830160008301516107e1600086018261059d565b5060208301516107f46020860182610883565b50604083015161080760408601826105bb565b506060830151848203606086015261081f82826105d9565b91505060808301518482036080860152610839828261064b565b9150508091505092915050565b600060808301600083015161085e6000860182610745565b506020830151848203606086015261087682826106bd565b9150508091505092915050565b61088c81610a82565b82525050565b61089b81610a82565b82525050565b600060208201905081810360008301526108bb818461053f565b905092915050565b60006020820190506108d860008301846105ac565b92915050565b60006020820190506108f360008301846105ca565b92915050565b600060208201905081810360008301526109138184610612565b905092915050565b600060208201905081810360008301526109358184610684565b905092915050565b600060208201905081810360008301526109578184610701565b905092915050565b60006060820190506109746000830184610787565b92915050565b6000602082019050818103600083015261099481846107c9565b905092915050565b600060208201905081810360008301526109b68184610846565b905092915050565b60006020820190506109d36000830184610892565b92915050565b6000819050602082019050919050565b600081519050919050565b600081519050919050565b600081519050919050565b6000602082019050919050565b600082825260208201905092915050565b600082825260208201905092915050565b600082825260208201905092915050565b600082825260208201905092915050565b600082825260208201905092915050565b60008115159050919050565b6000819050919050565b6000819050919050565b60005b83811015610aaa578082015181840152602081019050610a8f565b83811115610ab9576000848401525b50505050565b6000601f19601f8301169050919050565b610ad981610a6c565b8114610ae457600080fd5b50565b610af081610a78565b8114610afb57600080fd5b50565b610b0781610a82565b8114610b1257600080fd5b5056fea2646970667358221220a2d662afe15f4b30055ed1579e515c5cea82ab95231b118af38cae155a43629364736f6c63430007060033",
  "immutableReferences": {},
  "source": "// SPDX-License-Identifier: UNLICENSED\npragma solidity ^0.7.0;\npragma experimental ABIEncoderV2;\n\ncontract TestHelpers_InternalReturnContract {\n    function getBoolean()\n        public\n        returns (\n            bool _out1\n        )\n    {\n        return _getBoolean();\n    }\n\n    function _getBoolean()\n        internal\n        returns (\n            bool _out1\n        )\n    {}\n\n    function getUint256()\n        public\n        returns (\n            uint256 _out1\n        )\n    {\n        return _getUint256();\n    }\n\n    function _getUint256()\n        internal\n        returns (\n            uint256 _out1\n        )\n    {}\n\n    function getBytes32()\n        public\n        returns (\n            bytes32 _out1\n        )\n    {\n        return _getBytes32();\n    }\n\n    function _getBytes32()\n        internal\n        returns (\n            bytes32 _out1\n        )\n    {}\n\n    function getBytes()\n        public\n        returns (\n            bytes memory _out1\n        )\n    {\n        return _getBytes();\n    }\n\n    function _getBytes()\n        internal\n        returns (\n            bytes memory _out1\n        )\n    {}\n\n    function getString()\n        public\n        returns (\n            string memory _out1\n        )\n    {\n        return _getString();\n    }\n\n    function _getString()\n        internal\n        returns (\n            string memory _out1\n        )\n    {}\n\n    function getInputtedBoolean(\n        bool _in1\n    )\n        public\n        returns (\n            bool _out1\n        )\n    {\n        return _getInputtedBoolean(_in1);\n    }\n\n    function _getInputtedBoolean(\n        bool _in1\n    )\n        internal\n        returns (\n            bool _out1\n        )\n    {}\n\n    function getInputtedUint256(\n        uint256 _in1\n    )\n        public\n        returns (\n            uint256 _out1\n        )\n    {\n        return _getInputtedUint256(_in1);\n    }\n\n    function _getInputtedUint256(\n        uint256 _in1\n    )\n        internal\n        returns (\n            uint256 _out1\n        )\n    {}\n\n    function getInputtedBytes32(\n        bytes32 _in1\n    )\n        public\n        returns (\n            bytes32 _out1\n        )\n    {\n        return _getInputtedBytes32(_in1);\n    }\n\n    function _getInputtedBytes32(\n        bytes32 _in1\n    )\n        internal\n        returns (\n            bytes32 _out1\n        )\n    {}\n\n    struct StructFixedSize {\n        bool valBoolean;\n        uint256 valUint256;\n        bytes32 valBytes32;\n    }\n\n    function getStructFixedSize()\n        public\n        returns (\n            StructFixedSize memory _out1\n        )\n    {\n        return _getStructFixedSize();\n    }\n\n    function _getStructFixedSize()\n        internal\n        returns (\n            StructFixedSize memory _out1\n        )\n    {}\n\n    struct StructDynamicSize {\n        bytes valBytes;\n        string valString;\n    }\n\n    function getStructDynamicSize()\n        public\n        returns (\n            StructDynamicSize memory _out1\n        )\n    {\n        return _getStructDynamicSize();\n    }\n\n    function _getStructDynamicSize()\n        internal\n        returns (\n            StructDynamicSize memory _out1\n        )\n    {}\n\n    struct StructMixedSize {\n        bool valBoolean;\n        uint256 valUint256;\n        bytes32 valBytes32;\n        bytes valBytes;\n        string valString;\n    }\n\n    function getStructMixedSize()\n        public\n        returns (\n            StructMixedSize memory _out1\n        )\n    {\n        return _getStructMixedSize();\n    }\n\n    function _getStructMixedSize()\n        internal\n        returns (\n            StructMixedSize memory _out1\n        )\n    {}\n\n    struct StructNested {\n        StructFixedSize valStructFixedSize;\n        StructDynamicSize valStructDynamicSize;\n    }\n\n    function getStructNested()\n        public\n        returns (\n            StructNested memory _out1\n        )\n    {\n        return _getStructNested();\n    }\n\n    function _getStructNested()\n        internal\n        returns (\n            StructNested memory _out1\n        )\n    {}\n\n    function getArrayUint256()\n        public\n        returns (\n            uint256[] memory _out\n        )\n    {\n        return _getArrayUint256();\n    }\n\n    function _getArrayUint256()\n        internal\n        returns (\n            uint256[] memory _out\n        )\n    {}\n}\n",
  "sourcePath": "/Users/kelvinfichter/Projects/smock/test/common/contracts/TestHelpers_InteralReturnContract.sol",
  "compiler": {
    "name": "solc",
    "version": "0.7.6+commit.7338295f.Emscripten.clang"
  },
  "schemaVersion": "3.3.3",
  "updatedAt": "2021-01-20T03:38:32.783Z",
  "devdoc": {
    "kind": "dev",
    "methods": {},
    "version": 1
  },
  "userdoc": {
    "kind": "user",
    "methods": {},
    "version": 1
  }
}