{
  "contractName": "TestHelpers_FallbackCaller",
  "abi": [
    {
      "inputs": [
        {
          "internalType": "address",
          "name": "_target",
          "type": "address"
        }
      ],
      "name": "setTarget",
      "outputs": [],
      "stateMutability": "nonpayable",
      "type": "function"
    },
    {
      "inputs": [],
      "name": "doFallback",
      "outputs": [
        {
          "internalType": "bytes",
          "name": "",
          "type": "bytes"
        }
      ],
      "stateMutability": "nonpayable",
      "type": "function"
    }
  ],
  "bytecode": "0x608060405234801561001057600080fd5b506102f0806100206000396000f3fe608060405234801561001057600080fd5b50600436106100365760003560e01c8063100cbf581461003b578063776d1a0114610059575b600080fd5b610043610075565b60405161005091906101ef565b60405180910390f35b610073600480360381019061006e919061018d565b610135565b005b606060008060009054906101000a900473ffffffffffffffffffffffffffffffffffffffff169050600080368080601f016020809104026020016040519081016040528093929190818152602001838380828437600081840152601f19601f820116905080830192505050505050509050600060606000806004855103602486016000885af191503d6040519150806020830101604052808252806000602084013e50811561012a5780945050505050610132565b805160208201fd5b90565b806000806101000a81548173ffffffffffffffffffffffffffffffffffffffff021916908373ffffffffffffffffffffffffffffffffffffffff16021790555050565b600081359050610187816102a3565b92915050565b60006020828403121561019f57600080fd5b60006101ad84828501610178565b91505092915050565b60006101c182610211565b6101cb818561021c565b93506101db81856020860161025f565b6101e481610292565b840191505092915050565b6000602082019050818103600083015261020981846101b6565b905092915050565b600081519050919050565b600082825260208201905092915050565b60006102388261023f565b9050919050565b600073ffffffffffffffffffffffffffffffffffffffff82169050919050565b60005b8381101561027d578082015181840152602081019050610262565b8381111561028c576000848401525b50505050565b6000601f19601f8301169050919050565b6102ac8161022d565b81146102b757600080fd5b5056fea26469706673582212203425761780e42b9ba5eb05af98c90159e5a02d0aa17cb55a6bc1228edf20e47c64736f6c63430007060033",
  "immutableReferences": {},
  "source": "// SPDX-License-Identifier: UNLICENSED\npragma solidity ^0.7.0;\npragma experimental ABIEncoderV2;\n\ncontract TestHelpers_FallbackCaller {\n    address target;\n\n    function setTarget(\n        address _target\n    )\n        external\n    {\n        target = _target;\n    }\n\n    function doFallback()\n        public\n        returns (\n            bytes memory\n        )\n    {\n        address tgt = target;\n        bytes memory data = msg.data;\n        bool success;\n        bytes memory returndata;\n\n        assembly {\n            success := call(gas(), tgt, 0, add(data, 36), sub(mload(data), 4), 0, 0)\n            let size := returndatasize()\n            returndata := mload(0x40)\n            mstore(0x40, add(add(returndata, 0x20), size))\n            mstore(returndata, size)\n            returndatacopy(add(returndata, 0x20), 0, size)\n        }\n\n        if (success) {\n            return returndata;\n        } else {\n            assembly {\n                revert(add(returndata, 0x20), mload(returndata))\n            }\n        }\n    }\n}\n",
  "sourcePath": "/Users/kelvinfichter/Projects/smock/test/common/contracts/TestHelpers_FallbackCaller.sol",
  "compiler": {
    "name": "solc",
    "version": "0.7.6+commit.7338295f.Emscripten.clang"
  },
  "schemaVersion": "3.3.3",
  "updatedAt": "2021-01-20T03:38:32.782Z",
  "devdoc": {
    "kind": "dev",
    "methods": {},
    "version": 1
  },
  "userdoc": {
    "kind": "user",
    "methods": {},
    "version": 1
  }
}