{
  "contractName": "TestHelpers_BasicReturnContract",
  "abi": [
    {
      "stateMutability": "nonpayable",
      "type": "fallback"
    },
    {
      "inputs": [],
      "name": "empty",
      "outputs": [],
      "stateMutability": "nonpayable",
      "type": "function"
    },
    {
      "inputs": [],
      "name": "getBoolean",
      "outputs": [
        {
          "internalType": "bool",
          "name": "_out1",
          "type": "bool"
        }
      ],
      "stateMutability": "nonpayable",
      "type": "function"
    },
    {
      "inputs": [],
      "name": "getUint256",
      "outputs": [
        {
          "internalType": "uint256",
          "name": "_out1",
          "type": "uint256"
        }
      ],
      "stateMutability": "nonpayable",
      "type": "function"
    },
    {
      "inputs": [],
      "name": "getBytes32",
      "outputs": [
        {
          "internalType": "bytes32",
          "name": "_out1",
          "type": "bytes32"
        }
      ],
      "stateMutability": "nonpayable",
      "type": "function"
    },
    {
      "inputs": [],
      "name": "getBytes",
      "outputs": [
        {
          "internalType": "bytes",
          "name": "_out1",
          "type": "bytes"
        }
      ],
      "stateMutability": "nonpayable",
      "type": "function"
    },
    {
      "inputs": [],
      "name": "getString",
      "outputs": [
        {
          "internalType": "string",
          "name": "_out1",
          "type": "string"
        }
      ],
      "stateMutability": "nonpayable",
      "type": "function"
    },
    {
      "inputs": [
        {
          "internalType": "bool",
          "name": "_in1",
          "type": "bool"
        }
      ],
      "name": "getInputtedBoolean",
      "outputs": [
        {
          "internalType": "bool",
          "name": "_out1",
          "type": "bool"
        }
      ],
      "stateMutability": "nonpayable",
      "type": "function"
    },
    {
      "inputs": [
        {
          "internalType": "uint256",
          "name": "_in1",
          "type": "uint256"
        }
      ],
      "name": "getInputtedUint256",
      "outputs": [
        {
          "internalType": "uint256",
          "name": "_out1",
          "type": "uint256"
        }
      ],
      "stateMutability": "nonpayable",
      "type": "function"
    },
    {
      "inputs": [
        {
          "internalType": "bytes32",
          "name": "_in1",
          "type": "bytes32"
        }
      ],
      "name": "getInputtedBytes32",
      "outputs": [
        {
          "internalType": "bytes32",
          "name": "_out1",
          "type": "bytes32"
        }
      ],
      "stateMutability": "nonpayable",
      "type": "function"
    },
    {
      "inputs": [],
      "name": "getStructFixedSize",
      "outputs": [
        {
          "components": [
            {
              "internalType": "bool",
              "name": "valBoolean",
              "type": "bool"
            },
            {
              "internalType": "uint256",
              "name": "valUint256",
              "type": "uint256"
            },
            {
              "internalType": "bytes32",
              "name": "valBytes32",
              "type": "bytes32"
            }
          ],
          "internalType": "struct TestHelpers_BasicReturnContract.StructFixedSize",
          "name": "_out1",
          "type": "tuple"
        }
      ],
      "stateMutability": "nonpayable",
      "type": "function"
    },
    {
      "inputs": [],
      "name": "getStructDynamicSize",
      "outputs": [
        {
          "components": [
            {
              "internalType": "bytes",
              "name": "valBytes",
              "type": "bytes"
            },
            {
              "internalType": "string",
              "name": "valString",
              "type": "string"
            }
          ],
          "internalType": "struct TestHelpers_BasicReturnContract.StructDynamicSize",
          "name": "_out1",
          "type": "tuple"
        }
      ],
      "stateMutability": "nonpayable",
      "type": "function"
    },
    {
      "inputs": [],
      "name": "getStructMixedSize",
      "outputs": [
        {
          "components": [
            {
              "internalType": "bool",
              "name": "valBoolean",
              "type": "bool"
            },
            {
              "internalType": "uint256",
              "name": "valUint256",
              "type": "uint256"
            },
            {
              "internalType": "bytes32",
              "name": "valBytes32",
              "type": "bytes32"
            },
            {
              "internalType": "bytes",
              "name": "valBytes",
              "type": "bytes"
            },
            {
              "internalType": "string",
              "name": "valString",
              "type": "string"
            }
          ],
          "internalType": "struct TestHelpers_BasicReturnContract.StructMixedSize",
          "name": "_out1",
          "type": "tuple"
        }
      ],
      "stateMutability": "nonpayable",
      "type": "function"
    },
    {
      "inputs": [],
      "name": "getStructNested",
      "outputs": [
        {
          "components": [
            {
              "components": [
                {
                  "internalType": "bool",
                  "name": "valBoolean",
                  "type": "bool"
                },
                {
                  "internalType": "uint256",
                  "name": "valUint256",
                  "type": "uint256"
                },
                {
                  "internalType": "bytes32",
                  "name": "valBytes32",
                  "type": "bytes32"
                }
              ],
              "internalType": "struct TestHelpers_BasicReturnContract.StructFixedSize",
              "name": "valStructFixedSize",
              "type": "tuple"
            },
            {
              "components": [
                {
                  "internalType": "bytes",
                  "name": "valBytes",
                  "type": "bytes"
                },
                {
                  "internalType": "string",
                  "name": "valString",
                  "type": "string"
                }
              ],
              "internalType": "struct TestHelpers_BasicReturnContract.StructDynamicSize",
              "name": "valStructDynamicSize",
              "type": "tuple"
            }
          ],
          "internalType": "struct TestHelpers_BasicReturnContract.StructNested",
          "name": "_out1",
          "type": "tuple"
        }
      ],
      "stateMutability": "nonpayable",
      "type": "function"
    },
    {
      "inputs": [],
      "name": "getArrayUint256",
      "outputs": [
        {
          "internalType": "uint256[]",
          "name": "_out",
          "type": "uint256[]"
        }
      ],
      "stateMutability": "nonpayable",
      "type": "function"
    }
  ],
  "bytecode": "0x608060405234801561001057600080fd5b50610a90806100206000396000f3fe608060405234801561001057600080fd5b50600436106100ee5760003560e01c8063394eea001161008c57806376133e321161006657806376133e321461024157806389ea642f1461025f578063923e9c7c1461027d578063f2a75fe4146102ad576100ef565b8063394eea00146101d557806345365051146101f35780636889597914610223576100ef565b8063143fd430116100c8578063143fd4301461015d57806314d207161461017b5780631f903037146101995780632d1be94d146101b7576100ef565b806307557357146100f15780630b1cfc8d146101215780630bcd3b331461013f576100ef565b5b005b61010b6004803603810190610106919061041a565b6102b7565b6040516101189190610823565b60405180910390f35b6101296102be565b60405161013691906108bf565b60405180910390f35b6101476102c9565b604051610154919061083e565b60405180910390f35b6101656102ce565b60405161017291906107e6565b60405180910390f35b6101836102d3565b60405161019091906108a4565b60405180910390f35b6101a16102de565b6040516101ae9190610823565b60405180910390f35b6101bf6102e3565b6040516101cc9190610808565b60405180910390f35b6101dd6102e8565b6040516101ea9190610882565b60405180910390f35b61020d60048036038101906102089190610443565b6102f3565b60405161021a9190610903565b60405180910390f35b61022b6102fa565b6040516102389190610903565b60405180910390f35b6102496102ff565b60405161025691906108e1565b60405180910390f35b61026761030a565b6040516102749190610860565b60405180910390f35b610297600480360381019061029291906103f1565b61030f565b6040516102a49190610808565b60405180910390f35b6102b5610316565b005b6000919050565b6102c6610318565b90565b606090565b606090565b6102db61034c565b90565b600090565b600090565b6102f0610372565b90565b6000919050565b600090565b61030761038c565b90565b606090565b6000919050565b565b6040518060a00160405280600015158152602001600081526020016000801916815260200160608152602001606081525090565b604051806060016040528060001515815260200160008152602001600080191681525090565b604051806040016040528060608152602001606081525090565b604051806040016040528061039f61034c565b81526020016103ac610372565b81525090565b6000813590506103c181610a15565b92915050565b6000813590506103d681610a2c565b92915050565b6000813590506103eb81610a43565b92915050565b60006020828403121561040357600080fd5b6000610411848285016103b2565b91505092915050565b60006020828403121561042c57600080fd5b600061043a848285016103c7565b91505092915050565b60006020828403121561045557600080fd5b6000610463848285016103dc565b91505092915050565b600061047883836107c8565b60208301905092915050565b600061048f8261092e565b610499818561095c565b93506104a48361091e565b8060005b838110156104d55781516104bc888261046c565b97506104c78361094f565b9250506001810190506104a8565b5085935050505092915050565b6104eb816109b1565b82525050565b6104fa816109b1565b82525050565b610509816109bd565b82525050565b610518816109bd565b82525050565b600061052982610939565b610533818561096d565b93506105438185602086016109d1565b61054c81610a04565b840191505092915050565b600061056282610939565b61056c818561097e565b935061057c8185602086016109d1565b61058581610a04565b840191505092915050565b600061059b82610944565b6105a5818561098f565b93506105b58185602086016109d1565b6105be81610a04565b840191505092915050565b60006105d482610944565b6105de81856109a0565b93506105ee8185602086016109d1565b6105f781610a04565b840191505092915050565b6000604083016000830151848203600086015261061f828261051e565b915050602083015184820360208601526106398282610590565b9150508091505092915050565b60006040830160008301518482036000860152610663828261051e565b9150506020830151848203602086015261067d8282610590565b9150508091505092915050565b6060820160008201516106a060008501826104e2565b5060208201516106b360208501826107c8565b5060408201516106c66040850182610500565b50505050565b6060820160008201516106e260008501826104e2565b5060208201516106f560208501826107c8565b5060408201516107086040850182610500565b50505050565b600060a08301600083015161072660008601826104e2565b50602083015161073960208601826107c8565b50604083015161074c6040860182610500565b5060608301518482036060860152610764828261051e565b9150506080830151848203608086015261077e8282610590565b9150508091505092915050565b60006080830160008301516107a3600086018261068a565b50602083015184820360608601526107bb8282610602565b9150508091505092915050565b6107d1816109c7565b82525050565b6107e0816109c7565b82525050565b600060208201905081810360008301526108008184610484565b905092915050565b600060208201905061081d60008301846104f1565b92915050565b6000602082019050610838600083018461050f565b92915050565b600060208201905081810360008301526108588184610557565b905092915050565b6000602082019050818103600083015261087a81846105c9565b905092915050565b6000602082019050818103600083015261089c8184610646565b905092915050565b60006060820190506108b960008301846106cc565b92915050565b600060208201905081810360008301526108d9818461070e565b905092915050565b600060208201905081810360008301526108fb818461078b565b905092915050565b600060208201905061091860008301846107d7565b92915050565b6000819050602082019050919050565b600081519050919050565b600081519050919050565b600081519050919050565b6000602082019050919050565b600082825260208201905092915050565b600082825260208201905092915050565b600082825260208201905092915050565b600082825260208201905092915050565b600082825260208201905092915050565b60008115159050919050565b6000819050919050565b6000819050919050565b60005b838110156109ef5780820151818401526020810190506109d4565b838111156109fe576000848401525b50505050565b6000601f19601f8301169050919050565b610a1e816109b1565b8114610a2957600080fd5b50565b610a35816109bd565b8114610a4057600080fd5b50565b610a4c816109c7565b8114610a5757600080fd5b5056fea2646970667358221220d9ae6fde4c8e7ec6d538e3e0fc97f52aa23f714250a538b2837590e254692ee564736f6c63430007060033",
  "immutableReferences": {},
  "source": "// SPDX-License-Identifier: UNLICENSED\npragma solidity ^0.7.0;\npragma experimental ABIEncoderV2;\n\ncontract TestHelpers_BasicReturnContract {\n    fallback()\n        external\n    {}\n\n    function empty()\n        public\n    {}\n\n    function getBoolean()\n        public\n        returns (\n            bool _out1\n        )\n    {}\n\n    function getUint256()\n        public\n        returns (\n            uint256 _out1\n        )\n    {}\n\n    function getBytes32()\n        public\n        returns (\n            bytes32 _out1\n        )\n    {}\n\n    function getBytes()\n        public\n        returns (\n            bytes memory _out1\n        )\n    {}\n\n    function getString()\n        public\n        returns (\n            string memory _out1\n        )\n    {}\n\n    function getInputtedBoolean(\n        bool _in1\n    )\n        public\n        returns (\n            bool _out1\n        )\n    {}\n\n    function getInputtedUint256(\n        uint256 _in1\n    )\n        public\n        returns (\n            uint256 _out1\n        )\n    {}\n\n    function getInputtedBytes32(\n        bytes32 _in1\n    )\n        public\n        returns (\n            bytes32 _out1\n        )\n    {}\n\n    struct StructFixedSize {\n        bool valBoolean;\n        uint256 valUint256;\n        bytes32 valBytes32;\n    }\n\n    function getStructFixedSize()\n        public\n        returns (\n            StructFixedSize memory _out1\n        )\n    {}\n\n    struct StructDynamicSize {\n        bytes valBytes;\n        string valString;\n    }\n\n    function getStructDynamicSize()\n        public\n        returns (\n            StructDynamicSize memory _out1\n        )\n    {}\n\n    struct StructMixedSize {\n        bool valBoolean;\n        uint256 valUint256;\n        bytes32 valBytes32;\n        bytes valBytes;\n        string valString;\n    }\n\n    function getStructMixedSize()\n        public\n        returns (\n            StructMixedSize memory _out1\n        )\n    {}\n\n    struct StructNested {\n        StructFixedSize valStructFixedSize;\n        StructDynamicSize valStructDynamicSize;\n    }\n\n    function getStructNested()\n        public\n        returns (\n            StructNested memory _out1\n        )\n    {}\n\n    function getArrayUint256()\n        public\n        returns (\n            uint256[] memory _out\n        )\n    {}\n}\n",
  "sourcePath": "/Users/kelvinfichter/Projects/smock/test/common/contracts/TestHelpers_BasicReturnContract.sol",
  "compiler": {
    "name": "solc",
    "version": "0.7.6+commit.7338295f.Emscripten.clang"
  },
  "schemaVersion": "3.3.3",
  "updatedAt": "2021-01-20T03:38:32.778Z",
  "devdoc": {
    "kind": "dev",
    "methods": {},
    "version": 1
  },
  "userdoc": {
    "kind": "user",
    "methods": {},
    "version": 1
  }
}